:020000040000FA
:060800000CEF1FF01200D6
:02080600983820
:0608080016EF18F01200CB
:02080E00C250D6
:08081000020B01E0010E1200D1
:0608180099EF1BF0120035
:02081E000400D4
:10082000D53E00004B010000040000000608000057
:1008300054010000020000007B3E000000070000A1
:100840005A000000783E00004F0100000300000045
:0408EC00D9CFE6FF7B
:1008F000E1CFD9FFFD0EDB50AD6E52EC1AF0E552A0
:10090000E7CFD9FF1200D9CFE6FFE1CFD9FF080E1C
:10091000E126DE6ADD6A200EF36E020EF3CFDBFF06
:10092000030EDB6AFB0EDBCF2BF0FC0EDBCF2CF0D3
:100930002C50000AE8AE02D02C3405D0000ED8802E
:100940002B54000E2C545AE2040EDB6A050EDB6AAF
:10095000FD0EDBCF1DF0FE0EDBCF1EF0060E1DC020
:10096000DBFF070E1EC0DBFF060EDBCFE9FF070E25
:10097000DBCFEAFFEF500BE0040EDB2A050E01E3AC
:10098000DB2A060EDB2A070E01E3DB2AEDD7040E75
:10099000DBCF2BF0050EDBCF2CF0FB0EDBCF2DF0E9
:1009A000FC0EDBCF2EF02C502E18E8AE02D02E34E9
:1009B00004D02D502B5C2E502C5805E3FB0EDB6A27
:1009C000FC0EDB6A10D0040EDBCF2BF0050EDBCF64
:1009D0002CF0D950FB0FE96EFF0EDA20EA6E2B5097
:1009E000EE5E2C50ED5AF90EDB50020B07E0300E94
:1009F000F36E020EF3CFDBFF030EDB6AF90EDB5062
:100A0000010B25E1FB0EDBCF2BF0FC0EDBCF2CF036
:100A10002C50000AE8AE02D02C3405D0000ED8804D
:100A20002B54000E2C5413E2020EDBCFE6FF030E14
:100A3000DBCFE6FF5BDFE552E552DF2A010E01E383
:100A4000DB2AFB0EDB06FC0E01E2DB06DBD7FD0E2C
:100A5000DBCFE9FFFE0EDBCFEAFFEF501CE0FD0E1F
:100A6000DBCFE9FFFE0EDBCFEAFFEFCF2BF02C6AE6
:100A70002BBE2C682BC0E6FF2CC0E6FF37DFE5520B
:100A8000E552DF2A010E01E3DB2AFD0EDB2AFE0E12
:100A900001E3DB2ADCD7FB0EDBCF2BF0FC0EDBCF38
:100AA0002CF02C50000AE8AE02D02C3405D0000EF9
:100AB000D8802B54000E2C5413E2020EDBCFE6FF3D
:100AC000030EDBCFE6FF12DFE552E552DF2A010E0F
:100AD00001E3DB2AFB0EDB06FC0E01E2DB06DBD7C3
:100AE000DECF2BF0DDCF2CF02BC0F3FF2CC0F4FFBA
:100AF00000D0D9CFE1FFE552E7CFD9FF1200D9CF1F
:100B0000E6FFE1CFD9FF0A0EE126040EDB6A050EEF
:100B1000DB6A060EDB6A070EDB6AFD0EDBCF1DF01B
:100B2000FE0EDBCF1EF0080E1DC0DBFF090E1EC03F
:100B3000DBFF0101BE0E006FEF0E146FD950FD0FE9
:100B4000E96EFF0EDA20EA6EEE50ED1019E1300E7C
:100B5000006F016BF50EDBCFE6FFF60EDBCFE6FF95
:100B6000F70EDBCFE6FFF80EDBCFE6FF000EE66EFA
:100B7000010EE66EC8DEF56E060EE15EF55026D17A
:100B8000D950F90FE96EFF0EDA20EA6EEE50ED1043
:100B90002CE0D950FB0FE96EFF0EDA20EA6E0A0E48
:100BA000EE1801E1ED5021E1FD0EDBCF2BF0FE0E42
:100BB000DBCF2CF00001800E2C1517E0010EF36E38
:100BC000040EF3CFDBFF050EDB6A1D681E68FD0E09
:100BD000DBCF22F0FE0EDBCF23F0F1EC1DF0080E90
:100BE0001BC0DBFF090E1CC0DBFF140E2B6E010EB9
:100BF0002C6E2B06000E2C5A2BC0DEFF2CC0DDFF06
:100C0000DECFE9FFDDCFEAFFEF6AD950080FE96ECA
:100C1000DACFEAFFEE50ED1072E0080EDBCF1DF0E8
:100C2000090EDBCF1EF0FB0EDBCF22F0FC0EDBCF7C
:100C300023F0E2EC1EF0020E19C0DBFF030E1AC017
:100C4000DBFF020EDBCF2BF0030EDBCF2CF02C50A2
:100C5000000AE8AE02D0D89004D00A0E2B5C000E39
:100C60002C5817E3F30EDBCF2BF0F40EDBCF2CF078
:100C7000300E2B5E000E2C5A0A0E2B5E000E2C5AE4
:100C8000D950020FE96EDACFEAFF2B50EE262C5036
:100C9000ED22300EE76E020EDBCF2BF0030EDBCF22
:100CA0002CF0E7502B26000E2C22D9CFE9FFDACF0B
:100CB000EAFFEE06ED5AEECFF3FFEDCFF4FFF3CFF0
:100CC000E9FFF4CFEAFF2BC0EFFFFB0EDBCF2BF0E9
:100CD000FC0EDBCF2CF0D950080FE96EDACFEAFF1B
:100CE0002BC022F02CC023F0EECF1DF0EDCF1EF074
:100CF000E2EC1EF01DC0EEFF1EC0EDFF86D7D950FE
:100D0000040FE96EDACFEAFFEE50ED102FE0D95074
:100D1000F70FE96EFF0EDA20EA6EEE50ED1015E0E7
:100D2000F50EDB50020B11E02D0EE66EE66ADEDDFD
:100D3000E552E552060EDB2A070E01E3DB2AF70E29
:100D4000DB06F80E01E2DB0611D0D9CFE9FFDACFDE
:100D5000EAFFEE06000EED5AEECFF3FFEDCFF4FF03
:100D6000F3CFE9FFF4CFEAFF2D0EEF6E060EDBCFD7
:100D70002DF0070EDBCF2EF02DC0E6FF2EC0E6FFD4
:100D8000F50EDBCFE6FFF60EDBCFE6FFF70EDBCF8F
:100D9000E6FFF80EDBCFE6FFDECFE6FFDDCFE6FFB6
:100DA000B2DDF56E060EE15EF550E552E7CF2EF0AE
:100DB000E552E7CF2DF02D50F3242B6E2E50F4206A
:100DC0002C6E2BC0F3FF2CC0F4FF00D0D9CFE1FF75
:100DD000E552E7CFD9FF1200D9CFE6FFE1CFD9FF27
:100DE0002E0EE1262C0EDB6A2D0EDB6AFD0EDBCF0C
:100DF000E9FFFE0EDBCFEAFFEF5001E119D3FD0E54
:100E0000DBCFE9FFFE0EDBCFEAFFEF50250801E064
:100E1000E0D2FD0EDB2AFE0E01E3DB2A2A0EDB6A9E
:100E20002B0EDB6AD950280FE96EDACFEAFFEE6AA3
:100E3000ED6AFD0EDBCFE9FFFE0EDBCFEAFFEF50E0
:100E400001E1F6D2FD0EDBCFE9FFFE0EDBCFEAFFBC
:100E5000EF50250801E1BDD2FD0EDBCFE9FFFE0E0C
:100E6000DBCFEAFFEF502D080CE1FD0EDB2AFE0E72
:100E700001E3DB2A010EF36E2A0EF3CFDBFF2B0E0C
:100E8000DB6AFD0EDBCFE9FFFE0EDBCFEAFFEF50A2
:100E900030080DE1FD0EDB2AFE0E01E3DB2AD950FE
:100EA0002A0FE96EDACFEAFFEE82ED52EAD7FD0EA5
:100EB000DBCFE9FFFE0EDBCFEAFFEFCF2BF0300EEA
:100EC0002B5C30E3FD0EDBCFE9FFFE0EDBCFEAFF4C
:100ED000EF50390827E3D950280FE96EDACFEAFF3F
:100EE0000A0EEC02F3CFEDFFEF02F3CFEEFFF4506A
:100EF000ED26FD0EDBCFE9FFFE0EDBCFEAFFEF5064
:100F0000D00F2B6E2C6AD950280FE96EDACFEAFF8A
:100F10002B50EE262C50ED22FD0EDB2AFE0E01E3B7
:100F2000DB2AC5D7FD0EDBCFE9FFFE0EDBCFEAFFE4
:100F3000EF50730861E1D950FB0FE96EFF0EDA2024
:100F4000EA6EEECFF3FFEDCFF4FF020EEE5E000E81
:100F5000EF5AF3CFE9FFF4CFEAFFEECF2BF0EFCF5C
:100F60002CF02D6A2BC0E6FF2CC0E6FF2DC0E6FF5B
:100F7000D9CFE6FFDACFE6FFA2EC1EF0F56E050E44
:100F8000E15EF550DF5015E154C12BF055C12CF056
:100F90002D6A2BC0E6FF2CC0E6FF2DC0E6FFD9CF9F
:100FA000E6FFDACFE6FFA2EC1EF0F56E050EE15E7D
:100FB000F5502A0EDBCFE6FF2B0EDBCFE6FF280E27
:100FC000DBCFE6FF290EDBCFE6FFD9CFE6FFDACF96
:100FD000E6FF99DCF56E060EE15EF550F3CF2BF0DF
:100FE000F4CF2CF0D9502C0FE96EDACFEAFF2B505A
:100FF000EE262C50ED2216D2FD0EDBCFE9FFFE0EC1
:10100000DBCFEAFFEF5064083EE1610EE66EE66A70
:101010002A0EDBCFE6FF2B0EDBCFE6FF280EDBCF61
:10102000E6FF290EDBCFE6FF010EE66EE66A0A0E4A
:10103000E66EE66AD950FB0FE96EFF0EDA20EA6E23
:10104000EECFF3FFEDCFF4FF020EEE5E000EEF5A8F
:10105000F3CFE9FFF4CFEAFFEECFE6FFEFCFE6FFF5
:101060004EDDF56E0C0EE15EF550F3CF2BF0F4CFB4
:101070002CF0D9502C0FE96EDACFEAFF2B50EE2678
:101080002C50ED22CFD1FD0EDBCFE9FFFE0EDBCFE2
:10109000EAFFEF5078083EE1610EE66EE66A2A0E3E
:1010A000DBCFE6FF2B0EDBCFE6FF280EDBCFE6FF24
:1010B000290EDBCFE6FF000EE66EE66A100EE66E46
:1010C000E66AD950FB0FE96EFF0EDA20EA6EEECF2A
:1010D000F3FFEDCFF4FF020EEE5E000EEF5AF3CFFA
:1010E000E9FFF4CFEAFFEECFE6FFEFCFE6FF07DD43
:1010F000F56E0C0EE15EF550F3CF2BF0F4CF2CF033
:10110000D9502C0FE96EDACFEAFF2B50EE262C5087
:10111000ED2288D1FD0EDBCFE9FFFE0EDBCFEAFF2B
:10112000EF5058083EE1410EE66EE66A2A0EDBCF2C
:10113000E6FF2B0EDBCFE6FF280EDBCFE6FF290E06
:10114000DBCFE6FF000EE66EE66A100EE66EE66A9C
:10115000D950FB0FE96EFF0EDA20EA6EEECFF3FFF7
:10116000EDCFF4FF020EEE5E000EEF5AF3CFE9FF73
:10117000F4CFEAFFEECFE6FFEFCFE6FFC0DCF56E7F
:101180000C0EE15EF550F3CF2BF0F4CF2CF0D950DC
:101190002C0FE96EDACFEAFF2B50EE262C50ED2211
:1011A00041D1FD0EDBCFE9FFFE0EDBCFEAFFEF50B2
:1011B00075083EE1610EE66EE66A2A0EDBCFE6FFB9
:1011C0002B0EDBCFE6FF280EDBCFE6FF290EDBCFB1
:1011D000E6FF000EE66EE66A0A0EE66EE66AD95093
:1011E000FB0FE96EFF0EDA20EA6EEECFF3FFEDCFD4
:1011F000F4FF020EEE5E000EEF5AF3CFE9FFF4CFDC
:10120000EAFFEECFE6FFEFCFE6FF79DCF56E0C0EDE
:10121000E15EF550F3CF2BF0F4CF2CF0D9502C0F2A
:10122000E96EDACFEAFF2B50EE262C50ED22FAD0F1
:10123000FD0EDBCFE9FFFE0EDBCFEAFFEF506C08BF
:1012400001E081D0610EE66EE66A2A0EDBCFE6FF92
:101250002B0EDBCFE6FF280EDBCFE6FF290EDBCF20
:10126000E6FF000EE66EE66A100EE66EE66AD950FC
:10127000FB0FE96EFF0EDA20EA6EEECFF3FFEDCF43
:10128000F4FF020EEE5E000EEF5AF3CFE9FFF4CF4B
:10129000EAFFEECFE6FFEFCFE6FF31DCF56E0C0E96
:1012A000E15EF550F3CF2BF0F4CF2CF0D9502C0F9A
:1012B000E96EDACFEAFF2B50EE262C50ED22610EBC
:1012C000E66EE66A2A0EDBCFE6FF2B0EDBCFE6FFEB
:1012D000280EDBCFE6FF290EDBCFE6FF000EE66E21
:1012E000E66A100EE66EE66AD950FB0FE96EFF0E55
:1012F000DA20EA6EEECFF3FFEDCFF4FF020EEE5EE2
:10130000000EEF5AF3CFE9FFF4CFEAFFEECFE6FF8E
:10131000EFCFE6FF7FEC05F0F56E0C0EE15EF550C9
:10132000F3CF2BF0F4CF2CF0D9502C0FE96EDACF9D
:10133000EAFF2B50EE262C50ED22FD0EDB2AFE0E8E
:1013400001E3DB2A6FD0FD0EDBCFE9FFFE0EDBCF22
:10135000EAFFEF5062083CE1610EE66EE66A020EBB
:10136000E66EE66A280EDBCFE6FF290EDBCFE6FF4E
:10137000000EE66EE66A020EE66EE66AD950FB0FD4
:10138000E96EFF0EDA20EA6EEECFF3FFEDCFF4FF49
:10139000020EEE5E000EEF5AF3CFE9FFF4CFEAFF44
:1013A000EECFE6FFEFCFE6FF7FEC05F0F56E0C0E1B
:1013B000E15EF550F3CF2BF0F4CF2CF0D9502C0F89
:1013C000E96EDACFEAFF2B50EE262C50ED222AD020
:1013D00029D0FD0EDBCFE9FFFE0EDBCFEAFFEF5099
:1013E0000A0808E1FD0EDBCFE9FFFE0EDBCFEAFFC6
:1013F0000D0EEF6EFD0EDBCFE9FFFE0EDBCFEAFF39
:10140000EFCF2BF02C6A2BBE2C682BC0E6FF2CC034
:10141000E6FF76EC04F0E552E5522C0EDB2A2D0EA9
:1014200001E3DB2AFD0EDB2AFE0E01E3DB2ADED41C
:101430002C0EDBCF2BF02D0EDBCF2CF02BC0F3FFCF
:101440002CC0F4FF00D0D9CFE1FFE552E7CFD9FFA0
:101450001200D9CFE6FFE1CFD9FF020EE126D95025
:10146000FD0F2B6EFF0EDA202C6E2BC0DEFF2CC082
:10147000DDFFFD0EDBCF2BF0FE0EDBCF2CF02D6A57
:101480002BC0E6FF2CC0E6FF2DC0E6FF5A0EE66E2D
:10149000070EE66EA2EC1EF0F56E050EE15EF5504D
:1014A000D9CFE9FFDACFEAFF020EEE5E000EEF5A67
:1014B000DECFE6FFDDCFE6FF5A0EE66E070EE66EE4
:1014C0008BDCE552E552E552E55200D0D9CFE1FF81
:1014D000E552E7CFD9FF1200D9CFE6FFE1CFD9FF20
:1014E000610EE66EE66A020EE66EE66A040EE66ECF
:1014F000E66A010EE66EE66A0A0EE66EE66AFD0E22
:10150000DBCFE6FFFE0EDBCFE6FF7FEC05F0F56EEE
:101510000C0EE15EF550D950FB0FE96EFF0EDA209C
:10152000EA6EEE50ED1007E00D0EE66EE66A76EC20
:1015300004F0E552E552E552E7CFD9FF1200D9CFCA
:10154000E6FFE1CFD9FF610EE66EE66A020EE66EB7
:10155000E66A030EE66EE66A010EE66EE66A0A0EBB
:10156000E66EE66AFE0EDBCFE6FFE66A7FEC05F08C
:10157000F56E0C0EE15EF550D950FC0FE96EFF0ED2
:10158000DA20EA6EEE50ED1007E00D0EE66EE66A28
:1015900076EC04F0E552E552E552E7CFD9FF1200B0
:1015A000D9CFE6FFE1CFD9FF610EE66EE66A020E03
:1015B000E66EE66A100EE66EE66A000EE66EE66A13
:1015C000020EE66EE66AFD0EDBCFE6FFFE0EDBCF17
:1015D000E6FF7FEC05F0F56E0C0EE15EF550D9509C
:1015E000FB0FE96EFF0EDA20EA6EEE50ED1007E019
:1015F0000D0EE66EE66A76EC04F0E552E552E55231
:10160000E7CFD9FF1200D9CFE6FFE1CFD9FF610EB6
:10161000E66EE66A020EE66EE66A080EE66EE66AB8
:10162000000EE66EE66A020EE66EE66AFE0EDBCF9E
:10163000E6FFE66A7FEC05F0F56E0C0EE15EF55014
:10164000D950FC0FE96EFF0EDA20EA6EEE50ED1075
:1016500007E00D0EE66EE66A76EC04F0E552E55220
:10166000E552E7CFD9FF1200D9CFE6FFE1CFD9FF8E
:10167000610EE66EE66A000EE66EE66A020EE66E41
:10168000E66A000EE66EE66A100EE66EE66AFD0E8B
:10169000DBCFE6FFFE0EDBCFE6FF7FEC05F0F56E5D
:1016A0000C0EE15EF550D950FB0FE96EFF0EDA200B
:1016B000EA6EEE50ED1007E00D0EE66EE66A76EC8F
:1016C00004F0E552E552E552E7CFD9FF1200D9CF39
:1016D000E6FFE1CFD9FF610EE66EE66A020EE66E26
:1016E000E66AE66EE66A000EE66EE66A100EE66EE2
:1016F000E66AFE0EDBCFE6FFE66A7FEC05F0F56EEC
:101700000C0EE15EF550D950FC0FE96EFF0EDA20A9
:10171000EA6EEE50ED1007E00D0EE66EE66A76EC2E
:1017200004F0E552E552E552E7CFD9FF1200D9CFD8
:10173000E6FFE1CFD9FFFD0EDBCF2BF0FE0EDBCFB6
:101740002CF02D6A2BC0E6FF2CC0E6FF2DC0E6FF73
:101750005A0EE66E070EE66EA2EC1EF0F56E050E52
:10176000E15EF5500101166B176B5A0EE66E070E1F
:10177000E66EBBEC1EF0E552E552F3CF2BF0F4CF52
:101780002CF001012B50165D2C50175918E25A0EFF
:101790001625E96E070E1721EA6EEFCF2BF02C6AA3
:1017A0002BBE2C682BC0E6FF2CC0E6FF76EC04F0C5
:1017B000E552E5520101162B000E1723D6D7010E74
:1017C000E66EE66AFB0EDBCFE6FFFC0EDBCFE6FF44
:1017D0004BDFE552E552E552E552E552E7CFD9FF3E
:1017E0001200D9CFE6FFE1CFD9FFFD0EDBCF2BF002
:1017F000FE0EDBCF2CF02D6A2BC0E6FF2CC0E6FFDF
:101800002DC0E6FF5A0EE66E070EE66EA2EC1EF045
:10181000F56E050EE15EF5500101166B176B5A0E61
:10182000E66E070EE66EBBEC1EF0E552E552F3CF16
:101830002BF0F4CF2CF001012B50165D2C501759D2
:1018400018E25A0E1625E96E070E1721EA6EEFCF41
:101850002BF02C6A2BBE2C682BC0E6FF2CC0E6FFB9
:1018600076EC04F0E552E5520101162B000E172329
:10187000D6D7010EE66EE66AFB0EDBCFE6FFFC0E66
:10188000DBCFE6FF8DDEE552E552E552E552E5524B
:10189000E7CFD9FF1200D9CFE6FFE1CFD9FFFD0E88
:1018A000DBCF2BF0FE0EDBCF2CF02D6A2BC0E6FF3A
:1018B0002CC0E6FF2DC0E6FF5A0EE66E070EE66E60
:1018C000A2EC1EF0F56E050EE15EF5500101166BFF
:1018D000176B5A0EE66E070EE66EBBEC1EF0E55275
:1018E000E552F3CF2BF0F4CF2CF001012B50165D15
:1018F0002C50175918E25A0E1625E96E070E1721BB
:10190000EA6EEFCF2BF02C6A2BBE2C682BC0E6FFC3
:101910002CC0E6FF76EC04F0E552E5520101162BEF
:0E192000000E1723D6D7E552E7CFD9FF1200ED
:02192E009F9088
:101930009D80CD8ECD98CD8ACD96CD92CD80938849
:10194000938A938C938EF190F2861200CD90F2964A
:1019500012000701002B000E01234AC72FF04BC7CE
:1019600030F0316A326A2F500A5D2B6E30500B59BD
:101970002C6E31500C592D6E32500D592E6E2BC0DD
:1019800012F74CC72FF04DC730F0316A326A2F5032
:101990000E5D2B6E30500F592C6E315010592D6E3C
:1019A000325011592E6E2BC013F74EC72FF04FC770
:1019B00030F0316A326A2F501C5D2B6E30501D5949
:1019C0002C6E31501E592D6E32501F592E6E2BC069
:1019D00024F750C72FF051C730F0316A326A2F50C8
:1019E000205D2B6E305021592C6E315022592D6EB6
:1019F000325023592E6E2BC025F752C72FF053C7F4
:101A000030F0316A326A2F502E5D2B6E30502F59D4
:101A10002C6E315030592D6E325031592E6E2BC0F4
:101A200036F754C72FF055C730F0316A326A2F505D
:101A3000325D2B6E305033592C6E315034592D6E2F
:101A4000325035592E6E2BC037F756C72FF057C777
:101A500030F0316A326A2F50405D2B6E3050415960
:101A60002C6E315042592D6E325043592E6E2BC080
:101A700048F758C72FF059C730F0316A326A2F50F3
:101A8000445D2B6E305045592C6E315046592D6EA9
:101A9000325047592E6E2BC049F70AC74AF70BC779
:101AA0004BF70EC74CF70FC74DF71CC74EF71DC7B6
:101AB0004FF720C750F721C751F72EC752F72FC74E
:101AC00053F732C754F733C755F740C756F741C7E6
:101AD00057F744C758F745C759F71200D9CFE6FF63
:101AE000E1CFD9FF070EE126FE0EDB50010A18E018
:101AF000010A01E0CAD000C71AF101C71BF1CE509C
:101B0000DF6ECF500101186F196B18C119F1186BF6
:101B1000DF502B6E2C6A2B5018272C501923B5D070
:101B2000050E00C7DBFF060E01C7DBFFCE50DF6EE0
:101B3000CF50E66ED950030FE96EDACFEAFFE552D7
:101B4000E750EE6EED6AD950030FE96EDACFEAFF87
:101B5000EE50ED6EEF6ADF502B6E2C6AD950030FFA
:101B6000E96EDACFEAFF2B50EE262C50ED22050E5F
:101B7000DBCF2BF0060EDBCF2CF001011A512B1816
:101B800002E11B512C1813E1030EDBCF1DF0040EF4
:101B9000DBCF1EF018511D5C2B6E19511E582C6E98
:101BA000010E2BC0DBFF020E2CC0DBFF28D0316AF8
:101BB000326A010E336E18C134F019C135F0366A3D
:101BC0003450315C2E6E355032582F6E36503358AB
:101BD000306E030EDBCF37F0040EDBCF38F0396AFE
:101BE0002E5037242B6E2F5038202C6E3050392039
:101BF0002D6E010E2BC0DBFF020E2CC0DBFF010E91
:101C0000DBCF2BF0020EDBCF2CF0F80E2B5C070E97
:101C10002C5813E3D950010FE96EDACFEAFF480ED2
:101C2000D880EE540D0EED5408E307010A2B000E88
:101C30000B230C230D23122B23D0010EDBCF2BF013
:101C4000020EDBCF2CF04E0E2B5C0F0E2C5812E345
:101C5000D950010FE96EDACFEAFF820ED880EE5438
:101C6000190EED5407E307010E2B000E0F2310236E
:101C7000112306D00701062B000E07230823092392
:101C8000022B03230423052300D0D9CFE1FFE55223
:101C9000E7CFD9FF1200D9CFE6FFE1CFD9FF070E7A
:101CA000E126FE0EDB50010A18E0010A01E0CAD06D
:101CB00000C71EF101C71FF1CE50DF6ECF500101EA
:101CC0001C6F1D6B1CC11DF11C6BDF502B6E2C6A31
:101CD0002B501C272C501D23B5D0050E00C7DBFF51
:101CE000060E01C7DBFFCE50DF6ECF50E66ED95037
:101CF000030FE96EDACFEAFFE552E750EE6EED6AC8
:101D0000D950030FE96EDACFEAFFEE50ED6EEF6ABD
:101D1000DF502B6E2C6AD950030FE96EDACFEAFF41
:101D20002B50EE262C50ED22050EDBCF2BF0060EAD
:101D3000DBCF2CF001011E512B1802E11F512C1892
:101D400013E1030EDBCF1DF0040EDBCF1EF01C51A0
:101D50001D5C2B6E1D511E582C6E010E2BC0DBFF1F
:101D6000020E2CC0DBFF28D0316A326A010E336EBE
:101D70001CC134F01DC135F0366A3450315C2E6E12
:101D8000355032582F6E36503358306E030EDBCF3D
:101D900037F0040EDBCF38F0396A2E5037242B6E23
:101DA0002F5038202C6E305039202D6E010E2BC054
:101DB000DBFF020E2CC0DBFF010EDBCF2BF0020E8F
:101DC000DBCF2CF0F80E2B5C070E2C5813E3D95008
:101DD000010FE96EDACFEAFF480ED880EE540D0EFF
:101DE000ED5408E307011C2B000E1D231E231F23A7
:101DF000242B23D0010EDBCF2BF0020EDBCF2CF0F7
:101E00004E0E2B5C0F0E2C5812E3D950010FE96EC9
:101E1000DACFEAFF820ED880EE54190EED5407E3B4
:101E20000701202B000E21232223232306D00701A4
:101E3000182B000E19231A231B23142B15231623EA
:101E4000172300D0D9CFE1FFE552E7CFD9FF120029
:101E5000D9CFE6FFE1CFD9FF070EE126FE0EDB501A
:101E6000010A18E0010A01E0CAD000C722F101C747
:101E700023F1CE50DF6ECF500101206F216B20C1C6
:101E800021F1206BDF502B6E2C6A2B5020272C5019
:101E90002123B5D0050E00C7DBFF060E01C7DBFF0F
:101EA000CE50DF6ECF50E66ED950030FE96EDACF19
:101EB000EAFFE552E750EE6EED6AD950030FE96E86
:101EC000DACFEAFFEE50ED6EEF6ADF502B6E2C6A30
:101ED000D950030FE96EDACFEAFF2B50EE262C50D3
:101EE000ED22050EDBCF2BF0060EDBCF2CF001012F
:101EF00022512B1802E123512C1813E1030EDBCFE2
:101F00001DF0040EDBCF1EF020511D5C2B6E215105
:101F10001E582C6E010E2BC0DBFF020E2CC0DBFF07
:101F200028D0316A326A010E336E20C134F021C1EB
:101F300035F0366A3450315C2E6E355032582F6E83
:101F400036503358306E030EDBCF37F0040EDBCF44
:101F500038F0396A2E5037242B6E2F5038202C6ED3
:101F6000305039202D6E010E2BC0DBFF020E2CC02D
:101F7000DBFF010EDBCF2BF0020EDBCF2CF0F80ED7
:101F80002B5C070E2C5813E3D950010FE96EDACF02
:101F9000EAFF480ED880EE540D0EED5408E3070119
:101FA0002E2B000E2F2330233123362B23D0010E6E
:101FB000DBCF2BF0020EDBCF2CF04E0E2B5C0F0E86
:101FC0002C5812E3D950010FE96EDACFEAFF820EE6
:101FD000D880EE54190EED5407E30701322B000EA2
:101FE00033233423352306D007012A2B000E2B235D
:101FF0002C232D23262B27232823292300D0D9CF98
:10200000E1FFE552E7CFD9FF1200D9CFE6FFE1CFDC
:10201000D9FF070EE126FE0EDB50010A18E0010A87
:1020200001E0CAD000C726F101C727F1CE50DF6E0C
:10203000CF500101246F256B24C125F1246BDF50A3
:102040002B6E2C6A2B5024272C502523B5D0050E3F
:1020500000C7DBFF060E01C7DBFFCE50DF6ECF509F
:10206000E66ED950030FE96EDACFEAFFE552E7508A
:10207000EE6EED6AD950030FE96EDACFEAFFEE504B
:10208000ED6EEF6ADF502B6E2C6AD950030FE96EAC
:10209000DACFEAFF2B50EE262C50ED22050EDBCFD7
:1020A0002BF0060EDBCF2CF0010126512B1802E19C
:1020B00027512C1813E1030EDBCF1DF0040EDBCFEC
:1020C0001EF024511D5C2B6E25511E582C6E010EE6
:1020D0002BC0DBFF020E2CC0DBFF28D0316A326A36
:1020E000010E336E24C134F025C135F0366A345008
:1020F000315C2E6E355032582F6E36503358306E5C
:10210000030EDBCF37F0040EDBCF38F0396A2E50E8
:1021100037242B6E2F5038202C6E305039202D6EE6
:10212000010E2BC0DBFF020E2CC0DBFF010EDBCF4C
:102130002BF0020EDBCF2CF0F80E2B5C070E2C5888
:1021400013E3D950010FE96EDACFEAFF480ED880C9
:10215000EE540D0EED5408E30701402B000E412311
:1021600042234323482B23D0010EDBCF2BF0020E5A
:10217000DBCF2CF04E0E2B5C0F0E2C5812E3D950F7
:10218000010FE96EDACFEAFF820ED880EE54190E05
:10219000ED5407E30701442B000E45234623472354
:1021A00006D007013C2B000E3D233E233F23382B56
:1021B00039233A233B2300D0D9CFE1FFE552E7CFC3
:0421C000D9FF120031
:0C21C40007017F0EB66FB76F0101356B8D
:1021D000366F030E376F8750010B386F396B010E66
:1021E0003A6F3B6B7F0E3C6F030E3D6F8750010BC8
:1021F0003E6F020E3F6F030E406F97EF0CF0D9CF8A
:10220000E6FFE1CFD9FFFE0EDB50060DF3CFE9FF6D
:10221000F4CFEAFF350EE926010EEA22030EE92685
:10222000000EEA22EFCF2BF08750010B2B5C41E030
:10223000FE0EDB50060DF3CFE9FFF4CFEAFF350EBB
:10224000E926010EEA22EF6A8750010BE66EFE0EC8
:10225000DB50060DF3CFE9FFF4CFEAFF350EE92698
:10226000010EEA22030EE926000EEA22E552E750AB
:10227000EF6EFE0EDB50060DF3CFE9FFF4CFEAFF61
:10228000350EE926010EEA22030EE926000EEA22A7
:10229000EF50E66EE66AFE0EDBCFE6FFE66AAA0EB8
:1022A000E66E390EE66E29EC0AF0F56E060EE15E7A
:1022B000F550FE0EDB50060DF3CFE9FFF4CFEAFF39
:1022C000350EE926010EEA22EF50030A01E107D29A
:1022D000020A01E18FD1030A01E117D1020A01E0EC
:1022E0009ED3FE0EDB50060DF3CFE9FFF4CFEAFFDD
:1022F000350EE926010EEA22040EE926000EEA2236
:10230000EF50120DF3CFE9FFF4CFEAFF020EE926FA
:10231000070EEA22100EE926000EEA22E9CF2BF082
:10232000EACF2CF0FE0EDB50060DF3CFE9FFF4CF21
:10233000EAFF350EE926010EEA22030EE926000E19
:10234000EA22EF500F012B24E96F000E2C20EA6FD8
:10235000EF503BE0FE0EDB50060DF3CFE9FFF4CF6C
:10236000EAFF350EE926010EEA22020EEF6EFE0E9E
:10237000DB50060DF3CFE9FFF4CFEAFF350EE92677
:10238000010EEA22020EE926000EEA22EFCF2BF020
:10239000FE0EDB50060DF3CFE9FFF4CFEAFF350E5A
:1023A000E926010EEA22EE522B50EF5EFE0EDBCF45
:1023B000E6FFE66A8B0EE66E390EE66E29EC0AF051
:1023C000E552E552E552E552A0D0FE0EDB50060D77
:1023D000F3CFE9FFF4CFEAFF350EE926010EEA223A
:1023E000050EE926000EEA22EF50120DF3CFE9FFA9
:1023F000F4CFEAFF020EE926070EEA22100EE926C4
:10240000000EEA22E9CF2BF0EACF2CF0FE0EDB50D3
:10241000060DF3CFE9FFF4CFEAFF350EE926010EF2
:10242000EA22030EE926000EEA22EF502B24E96F80
:10243000000E2C20EA6FEF503BE0FE0EDB50060D45
:10244000F3CFE9FFF4CFEAFF350EE926010EEA22C9
:10245000010EEF6EFE0EDB50060DF3CFE9FFF4CF59
:10246000EAFF350EE926010EEA22020EE926000EE9
:10247000EA22EFCF2BF0FE0EDB50060DF3CFE9FF83
:10248000F4CFEAFF350EE926010EEA22EE522B5078
:10249000EF26FE0EDBCFE6FFE66A6B0EE66E390E28
:1024A000E66E29EC0AF0E552E552E552E5522DD0F0
:1024B000FE0EDB50060DF3CFE9FFF4CFEAFF350E39
:1024C000E926010EEA22020EE926000EEA22EFCFEB
:1024D0002BF0FE0EDB50060DF3CFE9FFF4CFEAFF41
:1024E000350EE926010EEA22EE522B50EF5EFE0E6B
:1024F000DBCFE6FFE66A4E0EE66E390EE66E29EC9D
:102500000AF0E552E552E552E552FE0EDB50060DAB
:10251000F3CFE9FFF4CFEAFF350EE926010EEA22F8
:10252000050EE926000EEA22EF50120DF3CFE9FF67
:10253000F4CFEAFF020EE926070EEA22100EE92682
:10254000000EEA22E9CF2BF0EACF2CF0FE0EDB5092
:10255000060DF3CFE9FFF4CFEAFF350EE926010EB1
:10256000EA22030EE926000EEA22EF500F012B2487
:10257000E96F000E2C20EA6FEF501CE0FE0EDB50DE
:10258000060DF3CFE9FFF4CFEAFF350EE926010E81
:10259000EA22030EEF6EFE0EDBCFE6FFE66A2F0E99
:1025A000E66E390EE66E29EC0AF0E552E552E55288
:1025B000E5521FD0FE0EDB50060DF3CFE9FFF4CF3E
:1025C000EAFF350EE926010EEA22020EE926000E88
:1025D000EA22EFCF2BF0FE0EDB50060DF3CFE9FF22
:1025E000F4CFEAFF350EE926010EEA22EE522B5017
:1025F000EF5E15D2FE0EDB50060DF3CFE9FFF4CFF0
:10260000EAFF350EE926010EEA22040EE926000E45
:10261000EA22EF50120DF3CFE9FFF4CFEAFF020EEA
:10262000E926070EEA22100EE926000EEA22E9CF7B
:102630002BF0EACF2CF0FE0EDB50060DF3CFE9FFB6
:10264000F4CFEAFF350EE926010EEA22030EE92651
:10265000000EEA22EF500F012B24E96F000E2C2010
:10266000EA6FEF501CE0FE0EDB50060DF3CFE9FFE2
:10267000F4CFEAFF350EE926010EEA22030EEF6ED3
:10268000FE0EDBCFE6FFE66A0F0EE66E390EE66E53
:1026900029EC0AF0E552E552E552E5521FD0FE0E54
:1026A000DB50060DF3CFE9FFF4CFEAFF350EE92644
:1026B000010EEA22020EE926000EEA22EFCF2BF0ED
:1026C000FE0EDB50060DF3CFE9FFF4CFEAFF350E27
:1026D000E926010EEA22EE522B50EF26A0D1FE0E83
:1026E000DB50060DF3CFE9FFF4CFEAFF350EE92604
:1026F000010EEA22040EE926000EEA22EF50120D26
:10270000F3CFE9FFF4CFEAFF020EE926070EEA2233
:10271000100EE926000EEA22E9CF2BF0EACF2CF0CA
:10272000FE0EDB50060DF3CFE9FFF4CFEAFF350EC6
:10273000E926010EEA22030EE926000EEA22EF50F6
:102740000F012B24E96F000E2C20EA6FEF5047E0B9
:10275000FE0EDB50060DF3CFE9FFF4CFEAFF350E96
:10276000E926010EEA22050EE926000EEA22EF50C4
:10277000120DF3CFE9FFF4CFEAFF020EE926070EB0
:10278000EA22100EE926000EEA22E9CF2DF0EACF68
:102790002EF0FE0EDB50060DF3CFE9FFF4CFEAFF7B
:1027A000350EE926010EEA22030EE926000EEA2282
:1027B000EF502D24E96F000E2E20EA6FEF500FE04E
:1027C000FE0EDBCFE6FFE66AFD0EE66E380EE66E25
:1027D00029EC0AF0E552E552E552E5521FD1FE0E12
:1027E000DB50060DF3CFE9FFF4CFEAFF350EE92603
:1027F000010EEA22040EE926000EEA22EF50120D25
:10280000F3CFE9FFF4CFEAFF020EE926070EEA2232
:10281000100EE926000EEA22E9CF2BF0EACF2CF0C9
:10282000FE0EDB50060DF3CFE9FFF4CFEAFF350EC5
:10283000E926010EEA22030EE926000EEA22EF50F5
:102840002B24E96F000E2C20EA6FEF503BE0FE0EC8
:10285000DB50060DF3CFE9FFF4CFEAFF350EE92692
:10286000010EEA22020EEF6EFE0EDB50060DF3CFD4
:10287000E9FFF4CFEAFF350EE926010EEA22020E47
:10288000E926000EEA22EFCF2BF0FE0EDB50060DFC
:10289000F3CFE9FFF4CFEAFF350EE926010EEA2275
:1028A000EE522B50EF5EFE0EDBCFE6FFE66ADE0E49
:1028B000E66E380EE66E29EC0AF0E552E552E55276
:1028C000E552ACD0FE0EDB50060DF3CFE9FFF4CF9E
:1028D000EAFF350EE926010EEA22050EE926000E72
:1028E000EA22EF50120DF3CFE9FFF4CFEAFF020E18
:1028F000E926070EEA22100EE926000EEA22E9CFA9
:102900002BF0EACF2CF0FE0EDB50060DF3CFE9FFE3
:10291000F4CFEAFF350EE926010EEA22030EE9267E
:10292000000EEA22EF502B24E96F000E2C20EA6FF4
:10293000EF503BE0FE0EDB50060DF3CFE9FFF4CF86
:10294000EAFF350EE926010EEA22010EEF6EFE0EB9
:10295000DB50060DF3CFE9FFF4CFEAFF350EE92691
:10296000010EEA22020EE926000EEA22EFCF2BF03A
:10297000FE0EDB50060DF3CFE9FFF4CFEAFF350E74
:10298000E926010EEA22EE522B50EF26FE0EDBCF97
:10299000E6FFE66ABE0EE66E380EE66E29EC0AF039
:1029A000E552E552E552E55239D0FE0EDB50060DF8
:1029B000F3CFE9FFF4CFEAFF350EE926010EEA2254
:1029C000EF6AFE0EDB50060DF3CFE9FFF4CFEAFF0E
:1029D000350EE926010EEA22020EE926000EEA2251
:1029E000EFCF2BF0FE0EDB50060DF3CFE9FFF4CF57
:1029F000EAFF350EE926010EEA22EE522B50EF5E79
:102A0000FE0EDBCFE6FFE66A9F0EE66E380EE66E40
:102A100029EC0AF0E552E552E552E55200D0E552C4
:062A2000E7CFD9FF120010
:0A2A2600D9CFE6FFE1CFD9FFFE0E85
:102A3000DB0411E1FC0EDBCFE9FFFD0EDBCFEAFF8B
:102A4000EF507F0808E2FC0EDBCFE9FFFD0EDBCF85
:102A5000EAFF7F0EEF6EE552E7CFD9FF1200D9CF24
:102A6000E6FFE1CFD9FFFE0EDB0413E1FC0EDBCF66
:102A7000E9FFFD0EDBCFEAFFEFCF2BF07F0E2B5CE3
:102A800008E2FC0EDBCFE9FFFD0EDBCFEAFF7F0E95
:102A9000EF6EE552E7CFD9FF1200D9CFE6FFE1CFC5
:102AA000D9FFFD0EDBCF2BF0FE0EDBCF2CF02C5030
:102AB000070AE8AE02D0D89004D0D00E2B5C070EE7
:102AC0002C5806E20101D00E526F070E536F1ED034
:102AD000FD0EDBCF2BF0FE0EDBCF2CF02C50080AC6
:102AE000E8AE02D02C3405D0CE0ED8802B54080E80
:102AF0002C5406E20101CE0E526F080E536F06D021
:102B0000FD0EDBCF52F1FE0EDBCF53F152C12BF0A5
:102B100053C12CF0D00E2B5E070E2C5A2B5000D038
:102B2000E552E7CFD9FF1200D9CFE6FFE1CFD9FFB9
:102B3000020EE126DA0EDE6E390EDD6EF00EE66E66
:102B40004EEC1BF0E552938A938893869384998286
:102B50009980938E938C9A849A82998699849A9874
:102B600094909A969A9E9A9C9A9A91988B90919604
:102B7000919E919C919A07017F0EBD6FBDC7BCF7D6
:102B8000BDC7BBF7BDC7BAF7BDC7B9F7BDC7B8F773
:102B9000BDC7B7F7BDC7B6F7C56FC5C7C4F7C5C7CB
:102BA000C3F7C5C7C2F7C5C7C1F7C5C7C0F7C5C713
:102BB000BFF7C5C7BEF7000EE66EE66AE66EE66AC8
:102BC000E66EE66AE66EE66A87EC19F0F56E080EC8
:102BD000E15EF55040EC1BF0E2EC10F0B20EE66E58
:102BE000070EE66E3FEC19F0E552E552DECFE6FF48
:102BF000DDCFE6FFD60EE66E390EE66E29EC0AF062
:102C0000E552E552E552E552AAEC18F0D9CFE1FFC2
:102C1000E552E7CFD9FF1200D20EE66E070EE66E40
:102C200005EC19F0E552E552B20EE66E070EE66EBF
:102C30003FEC19F0E552E5521200D8C7B6F7D9C7F4
:102C4000B7F7DAC7B8F7DBC7B9F7DCC7BAF7DDC73C
:102C5000BBF7DEC7BCF7DFC7BDF7E0C7BEF7E1C70C
:102C6000BFF7E2C7C0F7E3C7C1F70701D8512E6A23
:102C7000D00F2D6E070E2E22DC5100012D242B6F5C
:102C8000000E2E202C6F7F0E2B5E000E2C5A2BC0B8
:102C9000E6FF2CC0E6FF01DFE552E5520701C36FF6
:102CA000C26F0701D8512E6AD00F2D6E070E2E224B
:102CB000DC512F6E306A2F502D5C2B6E30502E5809
:102CC0002C6E7F0E2B26000E2C222BC0E6FF2CC074
:102CD000E6FFE3DEE552E5520701C56FC46F8150A0
:102CE000040B01E0010E2B6E0701D451010B2B14D4
:102CF000010BF36EFE0E8C14F3108C6E8150080BDA
:102D000001E0010E2B6ED451020B01E0010E2B14D9
:102D1000010BF36EFE0E8D14F3108D6E8150100BAF
:102D200001E0010E2B6ED551010B2B14010BF36E3C
:102D3000F346FD0E8C14F3108C6E8150200B01E0D5
:102D4000010E2B6ED551020B01E0010E2B14010B6D
:102D5000F36EF346FD0E8D14F3108D6ED451100BEF
:102D600002E08C8401D08C94D451200B02E08D843D
:102D700001D08D94D551100B02E08C8601D08C9639
:102D8000D551200B02E08D8601D08D96D451040BD5
:102D900002E08C8801D08C98D451080B02E08D8819
:102DA00001D08D98D551040B02E08C8A01D08C9A09
:102DB000D551080B02E08D8A01D08D9AD451400B79
:102DC00002E08C8C01D08C9CD451800B02E08D8C65
:102DD00001D08D9CD551400B02E08C8E01D08C9E91
:102DE000D551800B02E0918001D09190B80EE66E33
:102DF000070EE66E8150400B01E0010EE66E13DE19
:102E0000E552E552E552B80EE66E070EE66E8150C9
:102E1000800B01E0010EE66E22DEE552E552E5523E
:102E2000B90EE66E070EE66E8750010BE66EFBDD0F
:102E3000E552E552E552B90EE66E070EE66E875092
:102E4000020B01E0010EE66E0ADEE552E552E552A4
:102E5000C00EE66E070EE66E8750040B01E0010E11
:102E6000E66EE1DDE552E552E552C00EE66E070E74
:102E7000E66E8750080B01E0010EE66EF0DDE552CC
:102E8000E552E552C10EE66E070EE66E8850020B63
:102E900001E0010EE66EC7DDE552E552E552C10ED6
:102EA000E66E070EE66E8850040B01E0010EE66E3A
:102EB000D6DDE552E552E5520701D3BBB4D0000E92
:102EC000D85D07E3D851380804E30701B291B28313
:102ED0003AD07D0ED85D13E3D8512B6E2C6A2C505E
:102EE000000AE8AE02D02C3405D0810ED8802B54D5
:102EF000000E2C5404E30701B281B28324D0D851D0
:102F00002B6E2C6A2C50000AE8AE02D0D89004D068
:102F1000D80E2B5C000E2C5813E3D8512D6E2E6A60
:102F20002E50000AE8AE02D02E3405D0FF0ED88015
:102F30002D54000E2E5404E30701B281B29303D046
:102F40000701B291B293000E0701DC5D07E3DC518B
:102F5000380804E30701B295B2873AD07D0EDC5DF4
:102F600013E3DC512B6E2C6A2C50000AE8AE02D021
:102F70002C3405D0810ED8802B54000E2C5404E341
:102F80000701B285B28724D0DC512B6E2C6A2C50FD
:102F9000000AE8AE02D0D89004D0D80E2B5C000E08
:102FA0002C5813E3DC512D6E2E6A2E50000AE8AE29
:102FB00002D02E3405D0FF0ED8802D54000E2E5492
:102FC00004E30701B285B29703D00701B295B29727
:102FD000B2998C50010B01E0B289B29B8D50010B6C
:102FE00001E0B28BB29D8C50020B01E0B28DB29F1A
:102FF0008D50020B01E0B28FB391B393B351040B28
:1030000001E0010E2B6E2C6A2B502C1002E0000EFA
:1030100001D0010E010BF36EF346F346FB0EB31520
:0C302000F310B36F02D0D8C7B2F7120053
:04302C00DACFE4FF14
:10303000E2CFDAFFE9CFE4FFEACFE4FFE652F2A203
:1030400002D08DD802D09EB6B9D8E552E5CFEAFFBE
:10305000E5CFE9FFE5CFDAFF1100E66A010EE66E83
:10306000050EE66E1EEC1EF0E552E552E55212002A
:10307000070EB46E000E886E876E866E856E846E47
:10308000836E826E816E806E916E906E8F6E8E6E8C
:103090008D6E8C6E8B6E8A6E896E2F0E926E93681B
:1030A0009C0E946E956A966A9768986A0E0E9A6E50
:1030B0009968C16AF19EB0989C8EA26A9F6AA06AC4
:1030C0009D6AA36AA56AC9DF9F86D08E9E969D865B
:1030D0009382F06AF288F09EF098F192F09AF16A89
:1030E000F28CF28E1200D9CFE6FFE1CFD9FFE65283
:1030F000BFDF0701F297F2990101B60E336F070E99
:10310000346FDF6A100EDF5C0AE2DF50EA6A3325B3
:10311000E96E3451EA227F0EEF6EDF2AF3D7070102
:10312000CF6B010ED06FC20ED16F0701F285070180
:10313000D46BD56B0701B26BB46BB56BB20EE66E98
:10314000070EE66E9CD8E552E552E552E552E7CF10
:10315000D9FF120082828088949292981200F29293
:103160000101200E2F6F9F860701F2A906D00101F1
:10317000E00E2C6F000E2D6F05D00101C00E2C6FDC
:10318000000E2D6F0701F2A1F279F2A706D001011E
:10319000800E2A6F000E2B6F05D00101A00E2A6F42
:1031A000000E2B6FC9CF30F12AC1E9FF2BC1EAFF16
:1031B0002A2B000E2B23EF50C96E12009E96C9CF0A
:1031C00030F101012F5100081EE22CC1E9FF2DC191
:1031D000EAFF2C2B000E2D2330C1EFFF2AC1E9FF9F
:1031E0002BC1EAFF2A2B2B23EFCF30F130C1C9FFCF
:1031F0002F072F5107E10701F2810701020ED06F5F
:103200000701F29301D0C96A1200D9CFE6FFE1CFDE
:10321000D9FF0701F2A12FD0F2A906D00101C00EFB
:10322000286F000E296F05D00101E00E286F000EF7
:10323000296FFD0EDBCF31F1FE0EDBCF32F12E6BAD
:10324000200E2E5D14E22E51EA6A2825E96E2951DE
:10325000EA22EF50E66E31C1E9FF32C1EAFF312BBD
:10326000000E3223E552E750EF6E2E2BE9D79D96E4
:103270000701F2919D86E552E7CFD9FF1200D9CF21
:10328000E6FFE1CFD9FF0701F2B338D0020E070104
:10329000D05D01E17ED80701F2A706D00101A00EA2
:1032A000286F000E296F05D00101800E286F000ED7
:1032B000296FFD0EDBCF33F1FE0EDBCF34F12E6B29
:1032C000200E2E5D14E233C1E9FF34C1EAFF332B37
:1032D000000E3423EF50E66E2E51EA6A2825E96E7F
:1032E0002951EA22E552E750EF6E2E2BE9D79D9641
:1032F0000701F277F2839D860701CF2BE552E7CFD6
:10330000D9FF12009D960701F2919D861200D9CF38
:10331000E6FFE1CFD9FF0001166BD950FD0FE96E32
:10332000FF0EDA20EA6E020EEE1801E1ED5002E126
:10333000168101D0BA6AD950FB0FE96EFF0EDA2070
:10334000EA6E020EEE1801E1ED5002E1168301D0A3
:10335000B76AD950F90FE96EFF0EDA20EA6E020E55
:10336000EE1801E1ED5002E1168501D0736AD950E3
:10337000F70FE96EFF0EDA20EA6E020EEE1801E199
:10338000ED5002E1168701D0706AE552E7CFD9FF10
:1033900012000701CE6BC96BC6AE04D0C69E010EEB
:1033A000C96F0ED0F150800B06E0F250080B03E01D
:1033B000020EC96F05D0F0A603D0909E030EC96F10
:1033C000250EC614250805E0010ECE6FC6CFC9F73D
:1033D00068D0C55005E0020ECE6FC5CFC9F761D0E9
:1033E000D0BE05D0030ECE6FD0CFC9F75AD09DB650
:1033F00005D0040ECE6F9DCFC9F753D09C5005E089
:10340000050ECE6F9CCFC9F74CD0080E9F5C05E02F
:10341000060ECE6F9FCFC9F744D0A25005E0070E2D
:10342000CE6FA2CFC9F73DD0A55005E0080ECE6FF4
:10343000A5CFC9F736D0500EF214500805E0090E9A
:10344000CE6FF2CFC9F72DD0470EF11405E00A0E6A
:10345000CE6FF1CFC9F725D0C00EF01405E00B0EEA
:10346000CE6FF0CFC9F71DD092A805D00C0ECE6F4D
:1034700092CFC9F716D093B005D00D0ECE6F93CF73
:10348000C9F70FD03E0E94141C0805E00E0ECE6F47
:1034900094CFC9F706D097BE04D00F0ECE6F97CF4A
:0434A000C9F7120056
:0C34A4009EB802D0FDD7FCD71200D9CF93
:1034B000E6FFE1CFD9FFFE0EDBCFE6FF11EC1DF0FA
:1034C000E5520D0EAD6EEEDFE552E7CFD9FF1200EB
:1034D000D9CFE6FFE1CFD9FF0701D950FD0FAA6F81
:1034E000FF0EDA20AB6F010EEA6AAA25E96EAB5136
:1034F000EA22EF50E66E11EC1DF0E552AAC7E9FF93
:10350000ABC7EAFFEF50E66E11EC1DF0E5520D0E71
:10351000AD6EC8DFE552E7CFD9FF1200D9CFE6FF85
:10352000E1CFD9FFFD0EDBCF2BF0FE0EDBCF2CF071
:103530002D6A2BC0E6FF2CC0E6FF2DC0E6FF5A0E19
:10354000E66E070EE66EA2EC1EF0F56E050EE15E6D
:10355000F5505A0EE66E070EE66EBBEC1EF0E55215
:10356000E552F3CFAEF7F4CFAFF70701AF51000A42
:10357000E8AE02D0AF3505D0500ED880AE55000E63
:10358000AF5503E2500EAE6FAF6BB06BB16BB15184
:10359000AF19E8AE02D0AF3504D0AE51B05DAF5137
:1035A000B1590EE25A0EB025E96E070EB121EA6E4E
:1035B000EF50AD6E77DF0701B02B000EB123E7D7D8
:1035C000E552E7CFD9FF1200D9CFE6FFE1CFD9FF0F
:1035D0000701AC6B1A0EAC5D11E2FD0EDBCFE9FF0B
:1035E000DB2AFE0EDBCFEAFF01E3DB2AEF50E66EBB
:1035F00011EC1DF0E5520701AC2BECD70D0EAD6EB2
:1036000051DFE552E7CFD9FF12000701D20EAA6FB2
:10361000070EAB6F0701D25101014B6F4C6B4D513F
:103620004B1902E14E514C1918E00701F2A502D0E6
:10363000F2950FD04DC1E6FF11EC1DF0E5524BC1E4
:10364000E6FF11EC1DF0E5520D0EAD6E2BDF07010C
:10365000F2954BC14DF14CC14EF101014D2B000EC5
:103660004E234E51000AE8AE02D04E3505D0FF0E73
:10367000D8804D55000E4E5502E24D6B4E6B120038
:10368000150EE66E3C0EE66E4BEC1EF0E552E55272
:10369000320EE66E1CEC1FF0E5521200D9CFE6FFA9
:1036A000E1CFD9FFFE0EDBCFADF7E552E7CFD9FF73
:1036B0001200D9CFE6FFE1CFD9FF020EE126FE0EC0
:1036C000DB507F0BFE0BFD0BE66EADC7E6FF77EC24
:1036D0001EF0E552E5520A0EE66E2CEC1FF0E552A4
:1036E0003AEC1FF007EC04F0000901E0FBD7C9EC4D
:1036F0001EF037EC1FF0C4502D6E2DC02EF02D6A39
:10370000C35000012D102B6F2EC02CF02BC0DEFFFC
:103710002CC0DDFFDECF2BF0DDCF2CF02BC0F3FF74
:103720002CC0F4FF00D0D9CFE1FFE552E7CFD9FF9D
:02373000120085
:0E373200D8CFE4FFE0CFE4FFE46EDACFE4FF8F
:10374000E2CFDAFFE9CFE4FFEACFE4FFE652D9CFD8
:10375000E6FFE1CFD9FF020EE126F2A402D0F294F7
:103760004FD09EA004D09E90A9EC0CF049D0F0A2BE
:1037700002D0F09245D0F0A402D0F09441D0F2A053
:103780003FD08150DF6EF290DF5001014F19E76E9C
:10379000010EE7CFDBFFDFCF4FF1DBA80AD0100E21
:1037A000DF1402E0010E01D0000EE66E6EEC0DF0AB
:1037B000E552010EDBAA0AD0200EDF1402E0010E52
:1037C00001D0000EE66E4BEC0EF0E552010EDBACC4
:1037D0000AD0400EDF1402E0010E01D0000EE66EAA
:1037E00028EC0FF0E552010EDBAE0AD0800EDF149C
:1037F00002E0010E01D0000EE66E05EC10F0E5527D
:10380000D9CFE1FFE552E7CFD9FFE552E5CFEAFF97
:10381000E5CFE9FFE5CFDAFFE550E5CFE0FFE5CF03
:10382000D8FF10000701D3AD14D00701F2A110D0CA
:10383000D20EE66E070EE66E05EC19F0E552E55283
:10384000B20EE66E070EE66E3FEC19F0E552E55259
:10385000E9D71200070100510101505D0701015134
:103860000101515918E2E66AFFEC10F0E552010E31
:10387000E66EFFEC10F0E552030E0101355D03E149
:10388000030E3B5D00E136C1B6F73CC1B7F700C798
:0838900050F101C751F11200D3
:08389800286E756C6C290054C8
:1038A0007261636B65722025753A2066726F6D20B8
:1038B000626F746820746F206E6F6E650A005472B8
:1038C00061636B65722025753A2066726F6D2062A8
:1038D0006F746820746F2072696768740A0054728C
:1038E00061636B65722025753A2066726F6D206288
:1038F0006F746820746F206C6566740A005472617E
:10390000636B65722025753A20626F74680A0054F3
:103910007261636B65722025753A2066726F6D2047
:10392000726967687420746F20626F74680A00544B
:103930007261636B65722025753A2066726F6D2027
:103940006C65667420746F20626F74680A0054722C
:1039500061636B65722025753A207374696C6C2005
:10396000736561726368696E670A00547261636BA4
:1039700065722025753A2066726F6D206E6F6E65D8
:1039800020746F2072696768740A00547261636BF7
:1039900065722025753A2066726F6D206E6F6E65B8
:1039A00020746F206C6566740A00547261636B65E5
:1039B000722025753A204E6F77206C6F6F6B696EA1
:1039C0006720666F7220626561636F6E2074797024
:1039D000652025750A0025730A004946492055735C
:1039E00065722050726F636573736F7220496E69E0
:0D39F0007469616C697A6564202E2E2E00CA
:0239FE00000EB9
:103A0000E96EEA6E04000CEC1DF0EA2A080EEA5C8E
:103A1000D8A402EF1DF01200EF6AE93E0CEF1DF092
:103A20001200FF0EE3CF09F009380F0B060FD8B2D2
:103A3000070F2A0FAD6E52EC1AF009500F0B060F4C
:103A4000D8B2070F2A0FAD6E52EC1AF0000C12001C
:103A500016500F0AD8B41200FF0EE3CF0AF0FE0E84
:103A6000E3CF0BF0FD0EE3CF0CF0FC0EE3CF0DF037
:103A70000A2A16A08D8E0B2A16A28F800C2A16A455
:103A80008F860D2A16A68F880E6A0F6A106A116A31
:103A900079EC1DF00A2E4FEF1DF016A08D9E0B2E17
:103AA00054EF1DF016A28F900C2E59EF1DF016A4A6
:103AB0008F9600000D2E5FEF1DF016A68F98000068
:103AC0000E2E64EF1DF0129000000F2E69EF1DF016
:103AD00012920000102E6EEF1DF012940000112EB5
:103AE00073EF1DF012969BEC1DF0133E4AEF1DF094
:103AF0001200D70E136E000000000000000091ECD1
:103B00001DF0132E7BEF1DF0D70E136E000000008A
:103B10000000000091EC1DF0132E86EF1DF0000058
:103B20001200000094EF1DF00000000000000000F3
:103B3000000000001200030E146E0000142E9DEF12
:043B40001DF0120062
:0C3B44001E0EF66E080EF76E000EF86EF6
:103B500001010900F550466F0900F550476F03E178
:103B6000466701D03DD00900F550416F0900F5507E
:103B7000426F0900F550436F09000900F550E96EE6
:103B80000900F550EA6E090009000900F550446F7C
:103B90000900F550456F09000900F6CF48F1F7CF4D
:103BA00049F1F8CF4AF141C1F6FF42C1F7FF43C1E5
:103BB000F8FF0101445302E1455307E00900F550C5
:103BC000EE6E4407F8E24507F9D748C1F6FF49C150
:103BD000F7FF4AC1F8FF01014607000E475BBFD758
:023BE0001200D1
:0E3BE2001EC02AF01DC029F01D502202F4CF93
:103BF0001CF0F3CF1BF01E502302F4CF1EF0F3CFC6
:103C00001DF02202F3501C26F4501D22E86A1E22E9
:103C100029502302F3501C26F4501D22E86A1E226C
:103C200023AE17EF1EF029501D5E2A501E5A2AAEF1
:0C3C3000000C22501D5E23501E5A000C98
:043C3C00D9CFE6FFF7
:103C4000E1CFD9FF3F0EC716C66AFE0EDB50C61283
:103C5000FC0EDB50C712FD0EDB50030A09E0010A1F
:103C600004E0020A06E1C78C04D0C78CC68801D0E4
:103C7000C688FE0EDB50050A03E0010A04E1928AC1
:103C80009486C79E01D09496949A9488C68AE552E9
:063C9000E7CFD9FF12008E
:0A3C9600D9CFE6FFE1CFD9FFAC6AF9
:103CA000AB6AFE0EDBB0AC88DBA202D0AC8CAB8C76
:103CB000DBB4AC8EDBA602D0AB8801D0AB8ADBA82C
:103CC00002D0AC8401D0AC94DBAC02D09D8A01D090
:103CD0009D9ADBAE02D09D8801D09D98FD0EDB50F1
:0E3CE000AF6EAC8AAB8EE552E7CFD9FF120073
:023CEE00D9CF2C
:103CF000E6FFE1CFD9FFC26AC16AC06AFD0EDB40B0
:103D00007F0B3C0BC26EFE0EDB500F0B2B6EFD0EBD
:103D1000DB38F00B300B2B10C16EFE0EDB380F0BB7
:103D2000070B2B6EFE0EDB50800B2B10C06EFD0EB2
:103D3000DBAE03D09E9C9D8CF28CC280E552E7CF17
:043D4000D9FF120095
:0C3D4400FB0EE3CFF6FFFC0EE3CFF7FF11
:103D5000FD0EE3CFF8FFFE0EE3CFE9FFFF0EE3CF4A
:103D6000EAFFE9CFF3FFEACFF4FF0900F5CFEFFF59
:103D7000EE66FBD71200FE0EE3CFE9FFFF0EE3CFA6
:103D8000EAFFF36AF46AEE5203E0F34AF42AFBD73F
:023D900012001F
:0E3D9200D9CFE6FFE1CFD9FF020EE126C350E4
:103DA000DF6E010EC4CFDBFFDECF2BF0DDCF2CF0BA
:103DB0002BC0F3FF2CC0F4FFD9CFE1FFE552E7CFD2
:043DC000D9FF120015
:0C3DC4001A6A196A100EE76ED8901D36BE
:103DD0001E3619361A362250195C23501A5805E33C
:103DE0002250195E23501A5A1D2AE72EF0D71200CE
:103DF00073EC18F094EC15F00701F2910701F2A1B1
:103E000007D00CEC16F00701D3AD02D012EC1CF079
:083E10002AEC1CF0F3D71200AC
:083E180016EE00F026EE00F0AA
:103E2000F86A269CA68EA69CFFEC1CF0A2EC1DF066
:083E3000F8EC1EF0F9D71200B6
:083E3800FF0EE3503A6E480E44
:103E400001D04C0EE76EE72EFED7E76AE72EFED7CD
:083E50003A2EF7D70000120022
:083E5800FF0EE350E84E1200DA
:0E3E6000000000D000D000D0E82EFAD71200EB
:023E6E00C29000
:043E70009D9C120003
:043E7400C2821200F4
:033E7800FF000048
:053E7B00000000000042
:103E80000000000000000000000000000000000032
:103E90000000000000000000000000000000000022
:103EA0000000000000000000000000000000000012
:103EB0000000000000000000000000000000000002
:103EC00000000000000000000000000000000000F2
:053ED0000000000000ED
:043ED50000000000E9
:020000040030CA
:0E000000FFFEFEFCFFFEFBFFFFFFFFFFFFFF0A
:00000001FF
